:0400000011EF7FF08D
:10FE0800120025EC7FF000EF00F09B8CD388D38A9A
:10FE1800D38C9B8EFC0ED316120000EE01F0300E30
:10FE2800EE6AE806FDE1000105EF7FF0336E000E93
:10FE3800316E3350346E010E326E345030EC7FF038
:10FE4800120009EC7FF053EC7FF004EC7FF086ECB5
:10FE58007FF01AEC7FF0FBD7100E31601200F29E93
:10FE68003150030D020EF326000EF422010EF32486
:10FE7800D96E000EF420DA6EDF503218FE0B3218FD
:10FE8800DF6E3150030D010EF324D96E000EF420FD
:10FE9800DA6E000EDE6E000EDD6EF28E1200C00EFF
:10FEA8008916F00E8B16D00E0F010F013817F30EBE
:10FEB8000F010F013A17C00E9216F00E9416316E0C
:10FEC8000F0E326E31503250030D010EF324D96EED
:10FED800000EF420DA6E000EDE6E000EDD6E32507B
:10FEE800030D020EF326000EF422010EF324D96E40
:10FEF800000EF420DA6EFE0EDF1632063228D8B471
:10FF08001200E1D7F29E316E0F0E336E315033502E
:10FF1800030D020EF326000EF422010EF324D96E0F
:10FF2800000EF420DA6EDF50010B326E336606D015
:10FF380032B002D0809A01D0808A58D03304D8A435
:10FF480006D032B002D0809801D080884FD033508C
:10FF5800020AD8A406D032B002D0809201D08082A2
:10FF680045D03350030AD8A406D032B002D08096C8
:10FF780001D080863BD03350040AD8A406D032B0D2
:10FF880002D0809401D0808431D03350050AD8A49F
:10FF980006D032B002D0809001D0808027D0335074
:10FFA800060AD8A406D032B002D0829201D082824A
:10FFB8001DD03350070AD8A406D032B002D082969A
:10FFC80001D0828613D03350080AD8A406D032B0A4
:10FFD80002D0829401D0828409D03350090AD8A46F
:10FFE80005D032B002D0829001D082803306332807
:08FFF800D8A48DD7F28E12008F
:020000040020DA
:08000000FFFFFFFFFFFFFFFF00
:020000040030CA
:0E000000FF23083CFF8085FF0FC00FE00F407C
:00000001FF
